{
  "contractName": "capstone",
  "abi": [
    {
      "constant": true,
      "inputs": [
        {
          "name": "",
          "type": "address"
        }
      ],
      "name": "balances",
      "outputs": [
        {
          "name": "",
          "type": "uint256"
        }
      ],
      "payable": false,
      "stateMutability": "view",
      "type": "function"
    },
    {
      "constant": true,
      "inputs": [
        {
          "name": "",
          "type": "uint256"
        }
      ],
      "name": "lands",
      "outputs": [
        {
          "name": "owner",
          "type": "address"
        },
        {
          "name": "forSale",
          "type": "bool"
        },
        {
          "name": "price",
          "type": "uint256"
        }
      ],
      "payable": false,
      "stateMutability": "view",
      "type": "function"
    },
    {
      "inputs": [],
      "payable": false,
      "stateMutability": "nonpayable",
      "type": "constructor"
    },
    {
      "anonymous": false,
      "inputs": [
        {
          "indexed": false,
          "name": "index",
          "type": "uint256"
        }
      ],
      "name": "LandOwnerChanged",
      "type": "event"
    },
    {
      "anonymous": false,
      "inputs": [
        {
          "indexed": false,
          "name": "index",
          "type": "uint256"
        },
        {
          "indexed": false,
          "name": "price",
          "type": "uint256"
        }
      ],
      "name": "LandPriceChanged",
      "type": "event"
    },
    {
      "anonymous": false,
      "inputs": [
        {
          "indexed": false,
          "name": "index",
          "type": "uint256"
        },
        {
          "indexed": false,
          "name": "price",
          "type": "uint256"
        },
        {
          "indexed": false,
          "name": "forSale",
          "type": "bool"
        }
      ],
      "name": "LandAvailabilityChanged",
      "type": "event"
    },
    {
      "constant": false,
      "inputs": [
        {
          "name": "index",
          "type": "uint256"
        },
        {
          "name": "price",
          "type": "uint256"
        }
      ],
      "name": "putLandUpForSale",
      "outputs": [],
      "payable": false,
      "stateMutability": "nonpayable",
      "type": "function"
    },
    {
      "constant": false,
      "inputs": [
        {
          "name": "index",
          "type": "uint256"
        }
      ],
      "name": "takeOffMarket",
      "outputs": [],
      "payable": false,
      "stateMutability": "nonpayable",
      "type": "function"
    },
    {
      "constant": true,
      "inputs": [],
      "name": "getLands",
      "outputs": [
        {
          "name": "",
          "type": "address[]"
        },
        {
          "name": "",
          "type": "bool[]"
        },
        {
          "name": "",
          "type": "uint256[]"
        }
      ],
      "payable": false,
      "stateMutability": "view",
      "type": "function"
    },
    {
      "constant": false,
      "inputs": [
        {
          "name": "index",
          "type": "uint256"
        }
      ],
      "name": "buyLand",
      "outputs": [],
      "payable": true,
      "stateMutability": "payable",
      "type": "function"
    },
    {
      "constant": false,
      "inputs": [],
      "name": "withdrawFunds",
      "outputs": [],
      "payable": false,
      "stateMutability": "nonpayable",
      "type": "function"
    },
    {
      "constant": false,
      "inputs": [],
      "name": "destroy",
      "outputs": [],
      "payable": true,
      "stateMutability": "payable",
      "type": "function"
    }
  ],
  "bytecode": "0x60806040523480156200001157600080fd5b50336000806101000a81548173ffffffffffffffffffffffffffffffffffffffff021916908373ffffffffffffffffffffffffffffffffffffffff160217905550610fa060026000600c811015156200006657fe5b6002020160010181905550600160026000600c811015156200008457fe5b6002020160000160146101000a81548160ff021916908315150217905550610fa060026001600c81101515620000b657fe5b6002020160010181905550600160026001600c81101515620000d457fe5b6002020160000160146101000a81548160ff021916908315150217905550610fa0600280600c811015156200010557fe5b60020201600101819055506001600280600c811015156200012257fe5b6002020160000160146101000a81548160ff021916908315150217905550610fa060026003600c811015156200015457fe5b6002020160010181905550600160026003600c811015156200017257fe5b6002020160000160146101000a81548160ff021916908315150217905550610fa060026004600c81101515620001a457fe5b6002020160010181905550600160026004600c81101515620001c257fe5b6002020160000160146101000a81548160ff021916908315150217905550610fa060026005600c81101515620001f457fe5b6002020160010181905550600160026005600c811015156200021257fe5b6002020160000160146101000a81548160ff021916908315150217905550610fa060026006600c811015156200024457fe5b6002020160010181905550600160026006600c811015156200026257fe5b6002020160000160146101000a81548160ff021916908315150217905550610fa060026007600c811015156200029457fe5b6002020160010181905550600160026007600c81101515620002b257fe5b6002020160000160146101000a81548160ff021916908315150217905550610fa060026008600c81101515620002e457fe5b6002020160010181905550600160026008600c811015156200030257fe5b6002020160000160146101000a81548160ff021916908315150217905550610fa060026009600c811015156200033457fe5b6002020160010181905550600160026009600c811015156200035257fe5b6002020160000160146101000a81548160ff021916908315150217905550610fa06002600a600c811015156200038457fe5b600202016001018190555060016002600a600c81101515620003a257fe5b6002020160000160146101000a81548160ff021916908315150217905550610fa06002600b600c81101515620003d457fe5b600202016001018190555060016002600b600c81101515620003f257fe5b6002020160000160146101000a81548160ff021916908315150217905550610b0c80620004206000396000f30060806040526004361061008e576000357c0100000000000000000000000000000000000000000000000000000000900463ffffffff16806324600fc31461009357806327e235e3146100aa5780636fe0c9061461010157806383197ef0146101fd578063be5912de14610207578063ced395581461023e578063d13114461461025e578063e261f1e51461028b575b600080fd5b34801561009f57600080fd5b506100a861030a565b005b3480156100b657600080fd5b506100eb600480360381019080803573ffffffffffffffffffffffffffffffffffffffff1690602001909291905050506103ea565b6040518082815260200191505060405180910390f35b34801561010d57600080fd5b50610116610402565b60405180806020018060200180602001848103845287818151815260200191508051906020019060200280838360005b83811015610161578082015181840152602081019050610146565b50505050905001848103835286818151815260200191508051906020019060200280838360005b838110156101a3578082015181840152602081019050610188565b50505050905001848103825285818151815260200191508051906020019060200280838360005b838110156101e55780820151818401526020810190506101ca565b50505050905001965050505050505060405180910390f35b6102056105ae565b005b34801561021357600080fd5b5061023c6004803603810190808035906020019092919080359060200190929190505050610643565b005b61025c6004803603810190808035906020019092919050505061073b565b005b34801561026a57600080fd5b506102896004803603810190808035906020019092919050505061099e565b005b34801561029757600080fd5b506102b660048036038101908080359060200190929190505050610a84565b604051808473ffffffffffffffffffffffffffffffffffffffff1673ffffffffffffffffffffffffffffffffffffffff16815260200183151515158152602001828152602001935050505060405180910390f35b600080339150600160008373ffffffffffffffffffffffffffffffffffffffff1673ffffffffffffffffffffffffffffffffffffffff16815260200190815260200160002054905060008111151561036157600080fd5b6000600160008473ffffffffffffffffffffffffffffffffffffffff1673ffffffffffffffffffffffffffffffffffffffff168152602001908152602001600020819055508173ffffffffffffffffffffffffffffffffffffffff166108fc829081150290604051600060405180830381858888f1935050505015156103e657600080fd5b5050565b60016020528060005260406000206000915090505481565b606080606080606080600080600c60405190808252806020026020018201604052801561043e5781602001602082028038833980820191505090505b509450600c6040519080825280602002602001820160405280156104715781602001602082028038833980820191505090505b509350600c6040519080825280602002602001820160405280156104a45781602001602082028038833980820191505090505b509250600091505b600c82101561059b57600282600c811015156104c457fe5b6002020190508060000160009054906101000a900473ffffffffffffffffffffffffffffffffffffffff1685838151811015156104fd57fe5b9060200190602002019073ffffffffffffffffffffffffffffffffffffffff16908173ffffffffffffffffffffffffffffffffffffffff16815250508060010154838381518110151561054c57fe5b90602001906020020181815250508060000160149054906101000a900460ff16848381518110151561057a57fe5b906020019060200201901515908115158152505081806001019250506104ac565b8484849750975097505050505050909192565b6000809054906101000a900473ffffffffffffffffffffffffffffffffffffffff1673ffffffffffffffffffffffffffffffffffffffff163373ffffffffffffffffffffffffffffffffffffffff1614151561060957600080fd5b6000809054906101000a900473ffffffffffffffffffffffffffffffffffffffff1673ffffffffffffffffffffffffffffffffffffffff16ff5b6000600283600c8110151561065457fe5b6002020190508060000160009054906101000a900473ffffffffffffffffffffffffffffffffffffffff1673ffffffffffffffffffffffffffffffffffffffff163373ffffffffffffffffffffffffffffffffffffffff161480156106b95750600082115b15156106c457600080fd5b60018160000160146101000a81548160ff0219169083151502179055508181600101819055507f53d1ff0a86f7808e901236fbf2dfe02cd61f02875b843aa62d22615251439d73838360016040518084815260200183815260200182151515158152602001935050505060405180910390a1505050565b6000600282600c8110151561074c57fe5b6002020190508060000160009054906101000a900473ffffffffffffffffffffffffffffffffffffffff1673ffffffffffffffffffffffffffffffffffffffff163373ffffffffffffffffffffffffffffffffffffffff16141580156107c057508060000160149054906101000a900460ff165b80156107d0575080600101543410155b15156107db57600080fd5b60008160000160009054906101000a900473ffffffffffffffffffffffffffffffffffffffff1673ffffffffffffffffffffffffffffffffffffffff1614156108915734600160008060009054906101000a900473ffffffffffffffffffffffffffffffffffffffff1673ffffffffffffffffffffffffffffffffffffffff1673ffffffffffffffffffffffffffffffffffffffff16815260200190815260200160002060008282540192505081905550610903565b34600160008360000160009054906101000a900473ffffffffffffffffffffffffffffffffffffffff1673ffffffffffffffffffffffffffffffffffffffff1673ffffffffffffffffffffffffffffffffffffffff168152602001908152602001600020600082825401925050819055505b338160000160006101000a81548173ffffffffffffffffffffffffffffffffffffffff021916908373ffffffffffffffffffffffffffffffffffffffff16021790555060008160000160146101000a81548160ff0219169083151502179055507fa571312981b4974f030abf5b8588b4ed53f58613d29ff8e919def6967abead89826040518082815260200191505060405180910390a15050565b6000600282600c811015156109af57fe5b6002020190508060000160009054906101000a900473ffffffffffffffffffffffffffffffffffffffff1673ffffffffffffffffffffffffffffffffffffffff163373ffffffffffffffffffffffffffffffffffffffff16141515610a1357600080fd5b60008160000160146101000a81548160ff0219169083151502179055507f53d1ff0a86f7808e901236fbf2dfe02cd61f02875b843aa62d22615251439d7382826001015460006040518084815260200183815260200182151515158152602001935050505060405180910390a15050565b600281600c81101515610a9357fe5b600202016000915090508060000160009054906101000a900473ffffffffffffffffffffffffffffffffffffffff16908060000160149054906101000a900460ff169080600101549050835600a165627a7a72305820020f9dc6048e5b5a340a5265ee9b252aa7d2ff28ec0b0508b9a6467dfe864ceb0029",
  "source": "pragma solidity ^0.4.11;\n\ncontract capstone {\n    address owner;\n    mapping (address => uint) public balances;\n    \n    struct Land {\n        address owner;\n        bool forSale;\n        uint price;\n    }\n    \n    Land[12] public lands;\n    \n    event LandOwnerChanged(\n        uint index\n    );\n    \n    event LandPriceChanged(\n        uint index,\n        uint price\n    );\n    \n    event LandAvailabilityChanged(\n        uint index,\n        uint price,\n        bool forSale\n    );\n    \n    constructor() public {\n        owner = msg.sender;\n        lands[0].price = 4000;\n        lands[0].forSale = true;\n        lands[1].price = 4000;\n        lands[1].forSale = true;\n        lands[2].price = 4000;\n        lands[2].forSale = true;\n        lands[3].price = 4000;\n        lands[3].forSale = true;\n        lands[4].price = 4000;\n        lands[4].forSale = true;\n        lands[5].price = 4000;\n        lands[5].forSale = true;\n        lands[6].price = 4000;\n        lands[6].forSale = true;\n        lands[7].price = 4000;\n        lands[7].forSale = true;\n        lands[8].price = 4000;\n        lands[8].forSale = true;\n        lands[9].price = 4000;\n        lands[9].forSale = true;\n        lands[10].price = 4000;\n        lands[10].forSale = true;\n        lands[11].price = 4000;\n        lands[11].forSale = true;\n    }\n    \n    function putLandUpForSale(uint index, uint price) public {\n        Land storage land = lands[index];\n        require(msg.sender == land.owner && price > 0);\n        land.forSale = true;\n        land.price = price;\n        emit LandAvailabilityChanged(index, price, true);\n    }\n    \n    function takeOffMarket(uint index) public {\n        Land storage land = lands[index];\n        require(msg.sender == land.owner);\n        land.forSale = false;\n        emit LandAvailabilityChanged(index, land.price, false);\n    }\n    \n    function getLands() public view returns(address[], bool[], uint[]) {\n        address[] memory addrs = new address[](12);\n        bool[] memory available = new bool[](12);\n        uint[] memory price = new uint[](12);\n        for (uint i = 0; i < 12; i++) {\n            Land storage land = lands[i];\n            addrs[i] = land.owner;\n            price[i] = land.price;\n            available[i] = land.forSale;\n        }\n        return (addrs, available, price);\n    }\n    \n    function buyLand(uint index) public payable {\n        Land storage land = lands[index];\n        \n        require(msg.sender != land.owner && land.forSale && msg.value >= land.price);\n        \n        if(land.owner == 0x0) {\n            balances[owner] += msg.value;\n        }else {\n            balances[land.owner] += msg.value;\n        }\n        land.owner = msg.sender;\n        land.forSale = false;\n        emit LandOwnerChanged(index);\n    }\n    \n    function withdrawFunds() public {\n        address payee = msg.sender;\n          uint payment = balances[payee];\n          require(payment > 0);\n          balances[payee] = 0;\n          require(payee.send(payment));\n    }\n    function destroy() payable public {\n        require(msg.sender == owner);\n        selfdestruct(owner);\n    }\n}",
  "sourcePath": "/root/Desktop/Development/Capstone Project - BlockChain Expert Training/contracts/capstone.sol",
  "compiler": {
    "name": "solc",
    "version": "0.4.24+commit.e67f0147.Emscripten.clang"
  },
  "schemaVersion": "2.0.1",
  "updatedAt": "2018-10-04T14:48:07.271Z"
}